:020000040000FA
:0400000007EF00F016
:100008004A8274ED07F000EF0AF0F3EC09F0410EB4
:10001800086E000E096EB7EC09F0380E086E000E77
:10002800096EB7EC09F02F0E086E000E096EB7ECDA
:1000380009F0190E086E000E096EB7EC09F0000EF3
:100048002A6E010E296E000E2E6E2868010E236E90
:10005800010E226E010E2F6E000E2C6E000E256E04
:10006800000E266EB468180E936E000E956E010E83
:10007800816E000E836E0B0ED76EA00EF26E81A6F7
:1000880048EF00F04AEF00F036EF01F02304D8A45F
:1000980050EF00F052EF00F036EF01F0000E246E42
:1000A800000E0B6E030E0A6E2850086E096A08BE11
:1000B8000906B2EC08F008C010F009C011F0000EF3
:1000C800136E030E126EE0EC09F02F0E166E000E82
:1000D800176E10501626115017222850086E096AFC
:1000E80008BE0906000E0B6E030E0A6E14EC09F02A
:1000F80008501624D96E09501720DA6E000EDF6EEC
:10010800282AFCEF00F0090E2818D8A48EEF00F07A
:1001180090EF00F092EF00F0000E286E000E0B6ECC
:10012800030E0A6E2850086E096A08BE0906B2EC6A
:1001380008F008C010F009C011F0000E136E030E8D
:10014800126EE0EC09F0190E166E000E176E1050C4
:100158001626115017222850086E096A08BE09068B
:10016800000E0B6E030E0A6E14EC09F008501624EC
:10017800D96E09501720DA6EDE04D8A4C6EF00F055
:10018800C8EF00F0CAEF00F084EF00F0010E246E13
:10019800000E0B6E030E0A6E2850086E096A08BE20
:1001A8000906B2EC08F008C010F009C011F0000E02
:1001B800136E030E126EE0EC09F02F0E166E000E91
:1001C800176E10501626115017222850086E096A0B
:1001D80008BE0906000E0B6E030E0A6E14EC09F039
:1001E80008501624D96E09501720DA6E010EDF6EFA
:1001F8002404D8A402EF01F004EF01F087EF00F027
:10020800000E0B6E030E0A6E2850086E096A08BEAF
:100218000906B2EC08F008C010F009C011F0000E91
:10022800136E030E126EE0EC09F02F0E166E000E20
:10023800176E10501626115017222850086E096A9A
:1002480008BE0906000E0B6E030E0A6E14EC09F0C8
:1002580008501624D96E09501720DA6E010EDF6E89
:10026800000E236E81B63BEF01F03DEF01F047EF42
:1002780001F02350D8A443EF01F045EF01F047EF18
:1002880001F0010E236E81A84CEF01F04EEF01F052
:10029800E8EF03F02204D8A454EF01F056EF01F080
:1002A800E8EF03F02C50D8A45CEF01F05EEF01F00A
:1002B8002EEF02F0000E0B6E030E0A6E2850086E29
:1002C800096A08BE0906B2EC08F008C010F009C0B7
:1002D80011F0000E136E030E126EE0EC09F0380EEA
:1002E800166E000E176E1050162611501722285041
:1002F800086E096A08BE0906000E0B6E030E0A6E28
:1003080014EC09F008501624D96E09501720DA6E3B
:10031800DF50D8A492EF01F094EF01F02EEF02F035
:10032800000E0B6E030E0A6E2850086E096A08BE8E
:100338000906B2EC08F008C010F009C011F0000E70
:10034800136E030E126EE0EC09F0410E166E000EED
:10035800176E10501626115017222850086E096A79
:1003680008BE0906000E0B6E030E0A6E14EC09F0A7
:1003780008501624D96E09501720DA6EDF50D8A419
:10038800C8EF01F0CAEF01F02EEF02F0000E0B6E7D
:10039800030E0A6E2850086E096A08BE0906B2ECF8
:1003A80008F008C010F009C011F0000E136E030E1B
:1003B800126EE0EC09F0410E166E000E176E10502A
:1003C8001626115017222850086E096A08BE090619
:1003D800000E0B6E030E0A6E14EC09F0085016247A
:1003E800D96E09501720DA6E010EDF6E000E0B6E03
:1003F800030E0A6E2850086E096A08BE0906B2EC98
:1004080008F008C010F009C011F0000E136E030EBA
:10041800126EE0EC09F0190E166E000E176E1050F1
:100428001626115017222850086E096A08BE0906B8
:10043800000E0B6E030E0A6E14EC09F00850162419
:10044800D96E09501720DA6E010EDF6E010E2C6E80
:1004580004EF03F02C04D8A434EF02F036EF02F0D6
:1004680004EF03F0000E0B6E030E0A6E2850086EA0
:10047800096A08BE0906B2EC08F008C010F009C005
:1004880011F0000E136E030E126EE0EC09F0410E2F
:10049800166E000E176E105016261150172228508F
:1004A800086E096A08BE0906000E0B6E030E0A6E76
:1004B80014EC09F008501624D96E09501720DA6E8A
:1004C800DF50D8A46AEF02F06CEF02F004EF03F0FB
:1004D800000E0B6E030E0A6E2850086E096A08BEDD
:1004E8000906B2EC08F008C010F009C011F0000EBF
:1004F800136E030E126EE0EC09F0380E166E000E45
:10050800176E10501626115017222850086E096AC7
:1005180008BE0906000E0B6E030E0A6E14EC09F0F5
:1005280008501624D96E09501720DA6EDF50D8A467
:10053800A0EF02F0A2EF02F004EF03F0000E0B6E42
:10054800030E0A6E2850086E096A08BE0906B2EC46
:1005580008F008C010F009C011F0000E136E030E69
:10056800126EE0EC09F0380E166E000E176E105081
:100578001626115017222850086E096A08BE090667
:10058800000E0B6E030E0A6E14EC09F008501624C8
:10059800D96E09501720DA6E010EDF6E000E0B6E51
:1005A800030E0A6E2850086E096A08BE0906B2ECE6
:1005B80008F008C010F009C011F0000E136E030E09
:1005C800126EE0EC09F0190E166E000E176E105040
:1005D8001626115017222850086E096A08BE090607
:1005E800000E0B6E030E0A6E14EC09F00850162468
:1005F800D96E09501720DA6E010EDF6E000E2C6ED0
:10060800000E246E000E0B6E030E0A6E2850086E44
:10061800096A08BE0906B2EC08F008C010F009C063
:1006280011F0000E136E030E126EE0EC09F02F0E9F
:10063800166E000E176E10501626115017222850ED
:10064800086E096A08BE0906000E0B6E030E0A6ED4
:1006580014EC09F008501624D96E09501720DA6EE8
:10066800000EDF6E282AAEEF03F0090E2818D8A472
:1006780040EF03F042EF03F044EF03F0000E286E62
:10068800000E0B6E030E0A6E2850086E096A08BE2B
:100698000906B2EC08F008C010F009C011F0000E0D
:1006A800136E030E126EE0EC09F0190E166E000EB2
:1006B800176E10501626115017222850086E096A16
:1006C80008BE0906000E0B6E030E0A6E14EC09F044
:1006D80008501624D96E09501720DA6EDE04D8A403
:1006E80078EF03F07AEF03F07CEF03F036EF03F0D6
:1006F800010E246E000E0B6E030E0A6E2850086E53
:10070800096A08BE0906B2EC08F008C010F009C072
:1007180011F0000E136E030E126EE0EC09F02F0EAE
:10072800166E000E176E10501626115017222850FC
:10073800086E096A08BE0906000E0B6E030E0A6EE3
:1007480014EC09F008501624D96E09501720DA6EF7
:10075800010EDF6E2404D8A4B4EF03F0B6EF03F063
:1007680039EF03F0000E0B6E030E0A6E2850086E68
:10077800096A08BE0906B2EC08F008C010F009C002
:1007880011F0000E136E030E126EE0EC09F02F0E3E
:10079800166E000E176E105016261150172228508C
:1007A800086E096A08BE0906000E0B6E030E0A6E73
:1007B80014EC09F008501624D96E09501720DA6E87
:1007C800010EDF6E000E226E81B8EDEF03F0EFEF41
:1007D80003F0F9EF03F02250D8A4F5EF03F0F7EF98
:1007E80003F0F9EF03F0010E226E410E086E000EC1
:1007F800096E17EC06F00009D8B405EF04F007EF0E
:1008080004F0E7EF04F0380E086E000E096EB7EC3E
:1008180009F0410E086E000E096EB7EC09F02F0EB4
:10082800086E000E096EB7EC09F0190E086E000E7E
:10083800096EB7EC09F0262A000E2C6E000E276E02
:100848005FEF04F0000E0B6E030E0A6E27C008F06F
:10085800096AB2EC08F008C010F009C011F0000EE7
:10086800136E030E126EE0EC09F0410E166E000EC8
:10087800176E105016261150172227C008F0096A63
:10088800000E0B6E030E0A6E14EC09F008501624C5
:10089800D96E09501720DA6E010EDF6E050E176E3D
:1008A8000F0E166EF10EE82EFED7162EFCD7172E59
:1008B800FAD700F0272A2650275CD8A066EF04F064
:1008C80068EF04F026EF04F0150E176E4B0E166E47
:1008D800BE0EE82EFED7162EFCD7172EFAD700D05C
:1008E800090E2618D8A47BEF04F07DEF04F0CEEFB4
:1008F80004F02628276E2750D8A485EF04F087EF48
:1009080004F089EF04F0CAEF04F0000E0B6E030E3A
:100918000A6EFF0E2724086E096AFF0E0922B2EC40
:1009280008F008C010F009C011F0000E136E030E95
:10093800126EE0EC09F0410E166E000E176E1050A4
:10094800162611501722FF0E2724086E096AFF0E7B
:100958000922000E0B6E030E0A6E14EC09F0085003
:100968001624D96E09501720DA6E000EDF6E030EBA
:10097800176E080E166E770EE82EFED7162EFCD7C9
:10098800172EFAD700F027067FEF04F0000E256E29
:10099800000E266E0B0E176E260E166E5E0EE82ED5
:1009A800FED7162EFCD7172EFAD7410E086E000E6A
:1009B800096EB7EC09F0000E2E6E000E286E010EBF
:1009C8002F6E010E2C6E380E086E000E096E17EC95
:1009D80006F00009D8B4F3EF04F0F5EF04F0D5EF12
:1009E80005F0380E086E000E096EB7EC09F0410EDE
:1009F800086E000E096EB7EC09F02F0E086E000E97
:100A0800096EB7EC09F0190E086E000E096EB7EC06
:100A180009F0252A010E2C6E000E276E4DEF05F009
:100A2800000E0B6E030E0A6E27C008F0096AB2ECBE
:100A380008F008C010F009C011F0000E136E030E84
:100A4800126EE0EC09F0380E166E000E176E10509C
:100A580016261150172227C008F0096A000E0B6EDF
:100A6800030E0A6E14EC09F008501624D96E0950CA
:100A78001720DA6E010EDF6E050E176E0F0E166E5A
:100A8800F10EE82EFED7162EFCD7172EFAD700F057
:100A9800272A2550275CD8A054EF05F056EF05F01B
:100AA80014EF05F0150E176E4B0E166EBE0EE82EDF
:100AB800FED7162EFCD7172EFAD700D0090E251808
:100AC800D8A469EF05F06BEF05F0BCEF05F0252819
:100AD800276E2750D8A473EF05F075EF05F077EF70
:100AE80005F0B8EF05F0000E0B6E030E0A6EFF0E50
:100AF8002724086E096AFF0E0922B2EC08F008C024
:100B080010F009C011F0000E136E030E126EE0EC27
:100B180009F0380E166E000E176E1050162611507A
:100B28001722FF0E2724086E096AFF0E0922000EFD
:100B38000B6E030E0A6E14EC09F008501624D96ED9
:100B480009501720DA6E000EDF6E030E176E080EBE
:100B5800166E770EE82EFED7162EFCD7172EFAD76C
:100B680000F027066DEF05F0000E256E000E266ECC
:100B78000B0E176E260E166E5E0EE82EFED7162E7C
:100B8800FCD7172EFAD7380E086E000E096EB7EC90
:100B980009F0000E2E6E000E286E010E2F6E000E4C
:100BA8002C6E410E086E000E096E380E0A6E000E8D
:100BB8000B6E6CEC09F00009D8B4E5EF05F0E7EF2F
:100BC80005F043EF00F0410E086E000E096EB7EC19
:100BD80009F0380E086E000E096EB7EC09F02F0EFA
:100BE800086E000E096EB7EC09F0190E086E000EBB
:100BF800096EB7EC09F0150E176E4B0E166EBE0E89
:100C0800E82EFED7162EFCD7172EFAD700D0000EE6
:100C18002E6E000E286E010E2F6E000E2C6E43EF06
:100C280000F007EF00F008C0D9FF09C0DAFFDF5075
:100C3800D8B421EF06F023EF06F042EF06F020EEDD
:100C480003F00850D9260950DA22DF50D8B42FEF24
:100C580006F031EF06F042EF06F020EE06F00850FD
:100C6800D9260950DA22DF50D8B43DEF06F03FEF1D
:100C780006F042EF06F0010E73EF07F020EE01F0E8
:100C88000850D9260950DA22DF50D8B44EEF06F0C2
:100C980050EF06F06EEF06F020EE04F00850D9266B
:100CA8000950DA22DF50D8B45CEF06F05EEF06F0A8
:100CB8006EEF06F020EE07F00850D9260950DA2228
:100CC800DF50D8B46AEF06F06CEF06F06EEF06F06E
:100CD8003FEF06F020EE02F00850D9260950DA223C
:100CE800DF50D8B47AEF06F07CEF06F09AEF06F002
:100CF80020EE05F00850D9260950DA22DF50D8B482
:100D080088EF06F08AEF06F09AEF06F020EE08F07A
:100D18000850D9260950DA22DF50D8B496EF06F0E9
:100D280098EF06F09AEF06F03FEF06F008C0D9FFFB
:100D380009C0DAFFDF50D8B4A4EF06F0A6EF06F03A
:100D4800C4EF06F020EE01F00850D9260950DA2247
:100D5800DF50D8B4B2EF06F0B4EF06F0C4EF06F0F7
:100D680020EE02F00850D9260950DA22DF50D8B414
:100D7800C0EF06F0C2EF06F0C4EF06F03FEF06F052
:100D880020EE03F00850D9260950DA22DF50D8B4F3
:100D9800D0EF06F0D2EF06F0F0EF06F020EE04F008
:100DA8000850D9260950DA22DF50D8B4DEEF06F011
:100DB800E0EF06F0F0EF06F020EE05F00850D92637
:100DC8000950DA22DF50D8B4ECEF06F0EEEF06F067
:100DD800F0EF06F03FEF06F020EE06F00850D926B7
:100DE8000950DA22DF50D8B4FCEF06F0FEEF06F027
:100DF8001CEF07F020EE07F00850D9260950DA2238
:100E0800DF50D8B40AEF07F00CEF07F01CEF07F03B
:100E180020EE08F00850D9260950DA22DF50D8B45D
:100E280018EF07F01AEF07F01CEF07F03FEF06F096
:100E380008C0D9FF09C0DAFFDF50D8B426EF07F0A1
:100E480028EF07F046EF07F020EE04F00850D92607
:100E58000950DA22DF50D8B434EF07F036EF07F044
:100E680046EF07F020EE08F00850D9260950DA229C
:100E7800DF50D8B442EF07F044EF07F046EF07F031
:100E88003FEF06F020EE02F00850D9260950DA228A
:100E9800DF50D8B452EF07F054EF07F072EF07F0C5
:100EA80020EE04F00850D9260950DA22DF50D8B4D1
:100EB80060EF07F062EF07F072EF07F020EE06F040
:100EC8000850D9260950DA22DF50D8B46EEF07F05F
:100ED80070EF07F072EF07F03FEF06F0000E120018
:100EE8000600D9CF04F0DACF05F0F3CF06F0F4CF3F
:100EF80007F0F2A482EF07F084EF07F0A8EF08F0FC
:100F0800000E836E2E50D8A48CEF07F08EEF07F0FA
:100F180093EF07F0819081828184ACEF07F02E0473
:100F2800D8A499EF07F09BEF07F0A0EF07F08180B6
:100F380081928184ACEF07F0020E2E18D8A4A7EF97
:100F480007F0A9EF07F0ACEF07F081808182819468
:100F58002E50030D380EF324D96E000EF420DA6EED
:100F6800DF50016E2E50030D2F0EF324D96E000EA4
:100F7800F420DA6EDF5029142C140110026E83500D
:100F88000218FE0B0218836E2E50030D390EF3243F
:100F9800D96E000EF420DA6EDF50016E2E50030D6C
:100FA800300EF324D96E000EF420DA6EDF502914C7
:100FB8002C140110026E024683500218FD0B021811
:100FC800836E2E50030D3A0EF324D96E000EF420D2
:100FD800DA6EDF50016E2E50030D310EF324D96EF8
:100FE800000EF420DA6EDF5029142C140110026E62
:100FF8000246024683500218FB0B0218836E2E50DD
:10100800030D410EF324D96E000EF420DA6EDF5082
:10101800016E2E50030D2F0EF324D96E000EF4200E
:10102800DA6EDF50026E2C50D8B41DEF08F020EFB6
:1010380008F0010E21EF08F0000E02142914011027
:10104800036E03460346034683500318F70B031841
:10105800836E2E50030D420EF324D96E000EF42039
:10106800DA6EDF50016E2E50030D300EF324D96E68
:10107800000EF420DA6EDF50026E2C50D8B447EF21
:1010880008F04AEF08F0010E4BEF08F0000E0214CA
:1010980029140110036E033A83500318EF0B031849
:1010A800836E2E50030D430EF324D96E000EF420E8
:1010B800DA6EDF50016E2E50030D310EF324D96E17
:1010C800000EF420DA6EDF50026E2C50D8B46FEFA9
:1010D80008F072EF08F0010E73EF08F0000E02142A
:1010E80029140110036E033A034683500318DF0BDB
:1010F8000318836E2E2A030E2E18D8A486EF08F044
:1011080088EF08F08AEF08F0000E2E6E2D2A640E84
:101118002D18D8A492EF08F094EF08F0A3EF08F088
:10112800000E2D6E29502A10D8B49DEF08F0A0EFBC
:1011380008F0010EA1EF08F0000E296E2A6A000ED1
:10114800D76E000ED66EF29407C0F4FF06C0F3FF08
:1011580005C0DAFF04C0D9FF4A921100000E0D6ED7
:101168000BBEBBEF08F0B9EF08F0C1EF08F00A6C4E
:101178000B1ED8B00B2A010E0D6E09BEC8EF08F081
:10118800C6EF08F0CEEF08F0086C091ED8B0092A9F
:10119800010E0D1A000E0F6E000E0E6E0A500B1087
:1011A800D8B4D9EF08F0DBEF08F003EF09F0010E2F
:1011B8000C6EE3EF08F0D8900A360B360C2A0BAE0B
:1011C800E8EF08F0EAEF08F0DFEF08F0D8900E3605
:1011D8000F360A50085C0B500958D8A0F6EF08F0F3
:1011E800F8EF08F0FDEF08F00A50085E0B50095AB6
:1011F8000E80D8900B320A320C2EEAEF08F00D5010
:10120800D8B409EF09F00BEF09F00FEF09F00E6CF5
:101218000F1ED8B00F2A0EC008F00FC009F0120038
:10122800000E0D6E09BE1DEF09F01BEF09F023EF4C
:1012380009F0086C091ED8B0092A010E0D6E0BBE04
:101248002AEF09F028EF09F02EEF09F00A6C0B1EBF
:10125800D8B00B2A0A500B10D8B435EF09F037EF85
:1012680009F05BEF09F0010E0C6E3FEF09F0D89022
:101278000A360B360C2A0BAE44EF09F046EF09F09C
:101288003BEF09F00A50085C0B500958D8A04FEF03
:1012980009F051EF09F055EF09F00A50085E0B50BC
:1012A800095AD8900B320A320C2E46EF09F00D502D
:1012B800D8B461EF09F063EF09F067EF09F0086C43
:1012C800091ED8B0092A08C008F009C009F01200A0
:1012D800000E116E000E126E000E136E1250030DEA
:1012E8000AC00CF00BC00DF0F3500C26F4500D2280
:1012F80013500C24D96E000E0D20DA6EDF500E6EDE
:101308001250030D08C00FF009C010F0F3500F265B
:10131800F450102213500F24D96E000E1020DA6EEC
:10132800DF500E241126132A020E13649EEF09F0D3
:10133800A0EF09F072EF09F0122A020E1264A7EF6B
:1013480009F0A9EF09F070EF09F0090E1118D8A4F7
:10135800B0EF09F0B2EF09F0B5EF09F0010EB6EF02
:1013680009F0000E1200000E0C6E000E0D6E0C50EF
:10137800030D08C00AF009C00BF0F3500A26F45018
:101388000B220D500A24D96E000E0B20DA6E000EC7
:10139800DF6E0D2A020E0D64D4EF09F0D6EF09F0C6
:1013A800BBEF09F00C2A020E0C64DDEF09F0DFEF49
:1013B80009F0B9EF09F0120010501202F3CF14F03F
:1013C800F4CF15F010501302F350152611501202E5
:1013D800F350152614C010F015C011F01200F29247
:1013E800F288D58CD59AD596D550F80B0409D56EC8
:1013F800D58E0F0EC16E120000EE29F0210EEE6A96
:0E140800E806FDE14A904A92000109EF00F06B
:020000040020DA
:08000000FFFFFFFFFFFFFFFF00
:020000040030CA
:0E000000FF02191EFF8385FF0FC00FE00F40A7
:00000001FF
